S01900004D696E6950726F6A656374315461736B312E73726563B2
S11300000C9434000C9449000C9449000C9449005D
S11300100C9449000C9449000C9449000C94490038
S11300200C9449000C9449000C9449000C94490028
S11300300C9449000C9449000C9449000C94490018
S11300400C9449000C9449000C9449000C94490008
S11300500C9449000C9449000C9449000C944900F8
S11300600C9449000C94490011241FBECFEFD8E032
S1130070DEBFCDBF11E0A0E0B1E0E6E6F1E002C0F2
S113008005900D92A03AB107D9F70E944B000C9449
S1130090B1000C940000CF93DF93CDB7DEB7C05A04
S11300A0D1090FB6F894DEBF0FBECDBF81E084B98D
S11300B080E98AB980EAE0E0F1E0DE01119601907E
S11300C00D928A95E1F740E050E047C02FEF34E30A
S11300D06CE0215030406040E1F700C000002BB1DB
S11300E02F772BB9FA01EE0FFF1FEE0FFF1FEE0F54
S11300F0FF1FE80FF91FEE0FFF1F21E030E02C0F68
S11301003D1FE20FF31F208131812115310539F4A0
S113011025B12E7F25B92BB12F7E2BB909C02130F3
S1130120310531F425B12E7F25B92BB120612BB9CE
S1130130E7EAF1E63197F1F700C0000025B121604C
S113014025B9019702C087E090E099230CF0BECF57
S11301508BB180688BB94F5F5F4F4A3051059CF378
S1090160B2CFF894FFCFBA
S11301660000000000000000000000000100010083
S1130176010000000000010001000100010001006F
S11301860000000001000000000001000000010062
S11301960000000000000000010001000000010052
S11301A60100000000000100010000000000010041
S11301B60000010000000000010000000000010032
S11301C60000010000000000000000000000010023
S11301D60000000000000100010001000100010010
S11301E60000000000000000000000000000010004
S11301F600000000000000000100000000000100F3
S9030000FC
