S01900004D696E6950726F6A656374315461736B322E73726563B1
S11300000C9434000C9449000C9449000C9449005D
S11300100C9449000C9449000C9449000C94490038
S11300200C9449000C9449000C9449000C94490028
S11300300C9449000C9449000C9449000C94490018
S11300400C9449000C9449000C9449000C94490008
S11300500C9449000C9449000C9449000C944900F8
S11300600C9449000C94490011241FBECFEFD8E032
S1130070DEBFCDBF11E0A0E0B1E0E2E4F1E002C0F8
S113008005900D92A034B107D9F70E944B000C944F
S11300909F000C940000CF93DF93CDB7DEB7C0541C
S11300A0D1090FB6F894DEBF0FBECDBF81E084B98D
S11300B080E98AB980E4E0E0F1E0DE011196019084
S11300C00D928A95E1F740E050E035C02BB12F77CF
S11300D02BB9FC01EE0FFF1F21E030E02C0F3D1F78
S11300E0E20FF31F208131812115310539F425B147
S11300F02E7F25B92BB12F7E2BB909C021303105B4
S113010031F425B12E7F25B92BB120612BB9E7EA53
S1130110F1E63197F1F700C0000025B1216025B95F
S1130120019702C08FE190E0992384F68BB1806837
S11301308BB94F5F5F4F14161506A4F7C4CFF8941C
S1050140FFCFEB
S113014200000000000000000000000001000100A7
S11301520100000000000100010001000100010093
S11301620000000001000000000001000000010086
S11301720000000000000000010001000000010076
S9030000FC
